:020000040000FA
:100000008000002081010000890100008B010000B8
:1000100000000000000000000000000000000000E0
:100020000000000000000000000000008D01000042
:1000300000000000000000008F010000910100009E
:100040009301000093010000930100009301000060
:100050009301000093010000930100009301000050
:100060009301000093010000930100009301000040
:10007000CB030000930100009301000093010000F6
:100080009301000093010000930100009301000020
:100090009301000093010000930100009301000010
:1000A00093010000930100001D0500009301000072
:1000B00093010000930100009301000093010000F0
:1000C00000F002F800F04CF812A030C808382418EC
:1000D0002D18AC4201D100F043F80FCCA246AB463C
:1000E0000CA730CF2D1B083F3F197C427F1E544484
:1000F0002D090426F441641EAC4201D300F030F80F
:100100000126334200D0FB1A3343984754465D46DC
:10011000DFE70000A8070000C8070000103A02D37C
:1001200078C878C1FAD8520701D330C830C101D598
:1001300004680C6070470000704700000023002432
:1001400000250026103A01D378C1FBD8520700D30E
:1001500030C100D50B6070471FB51FBD10B510BD75
:1001600000F001F91146FFF7F7FF00F07BFB00F00C
:1001700019F903B4FFF7F2FF03BC00F01FF9000008
:100180000748804707480047FEE7FEE7FEE7FEE72F
:10019000FEE7FEE704480549034A054B70470000A7
:1001A000B9040000C100000080FCFF1F8000002097
:1001B00080FCFF1F01E004C0091F0429FBD28B074C
:1001C00001D50280801CC90700D002707047002949
:1001D0000BD0C30702D00270401C491E022904D371
:1001E000830702D50280801C891EE3E70022EEE728
:1001F0000022DFE7002203098B422CD3030A8B4243
:1002000011D300239C464EE003460B433CD400220E
:1002100043088B4231D303098B421CD3030A8B4220
:1002200001D394463FE0C3098B4201D3CB01C01AEE
:10023000524183098B4201D38B01C01A52414309B9
:100240008B4201D34B01C01A524103098B4201D3A7
:100250000B01C01A5241C3088B4201D3CB00C01A14
:10026000524183088B4201D38B00C01A524143088C
:100270008B4201D34B00C01A5241411A00D20146B1
:100280005241104670475DE0CA0F00D0494203104A
:1002900000D3404253409C46002203098B422DD399
:1002A000030A8B4212D38901FC2212BA030A8B4241
:1002B0000CD3890192118B4208D3890192118B4290
:1002C00004D389013AD0921100E08909C3098B4215
:1002D00001D3CB01C01A524183098B4201D38B0158
:1002E000C01A524143098B4201D34B01C01A5241FB
:1002F00003098B4201D30B01C01A5241C3088B4240
:1003000001D3CB00C01A524183088B4201D38B002A
:10031000C01A5241D9D243088B4201D34B00C01AB4
:100320005241411A00D201465241104663465B10C9
:1003300001D34042002B00D54942704763465B1011
:1003400000D3404201B50549002802DC491C0840A1
:1003500000E00846C046C04602BD00BFFFFFFF7F69
:10036000704770477047754600F024F8AE460500A8
:1003700069465346C008C000854618B020B5FFF74F
:1003800009FF60BCB64600260027C0C5C0C5C0C571
:10039000C0C5C0C5C0C5C0C5C0C5403D49084900AD
:1003A0008D46704710B50446C046C0462046FFF74C
:1003B000E0FE10BD0048704708FCFF1F01491820EF
:1003C000ABBEFEE726000200704780B500F0DCF906
:1003D00080BDB0B5044640252946FFF707FF002041
:1003E0006055B0BD80B5084600F0BCF980BD402125
:1003F000002242547047090800000000000000007D
:10040000FFFFFFFFFFFFFFFFFFFFFFFFFEFFFFFFFD
:1004100080B540490B780120C0030A783F2B11D8E2
:10042000520703D40A789206520FD040C97849097E
:100430007944097949008F4403231B1E17262A217A
:10044000052116E0C0231A40402A08D14A78D20775
:100450001FD0087A0007410F1248C84019E00978F8
:100460001940802915D080BD0521C9015C310FE0FC
:100470000F21C9010CE00521490209E00A4907E002
:100480000521090204E005210902B83100E007490D
:10049000484307490968090F491CFFF7ABFE0549A6
:1004A000086080BD00093D00710B00009508000048
:1004B0004480044000FCFF1F13480021016001201C
:1004C0004102914A13680B4313600004D0600F4847
:1004D00001680F4A114001604168114041600D48B8
:1004E000042141700C4980220A7002210170C178F8
:1004F0001F220A40A032C2708179C906FCD48179DA
:100500000907890FFBD17047008104400C9004401B
:10051000FFF8FFFE0040064000500640B0B54048DE
:10052000002141707B490A68042313430B604A6829
:1005300003785C425C410470384C002B00D1641C91
:10054000247824070125AD0564194C605900401832
:100550004188511A0A04D2179143C180B0BDC046E8
:10056000F0B5431E04469C41270201267302002970
:1005700000D01F43B402002A00D02743524D6F60C1
:10058000002801D1300200E00020002900D1C0186D
:10059000002A00D100192860F0BDC046F8B55D48BA
:1005A0000168042421430160026880218A430260BB
:1005B0000268009203684225AB43036003680B4363
:1005C00003600025154E164B022D11D0775D3F07B5
:1005D00001229205BA18426002685207FCD50268EF
:1005E000224302606A009A18476857806D1CEBE747
:1005F00004688C4304600468402525430560022498
:10060000009A22400568A543AA18026002680A43BE
:1006100002600021197003494160F8BDF603000033
:1006200068FCFF1F0000409010B50120C106364A4B
:1006300053680B435360410213680B431360072256
:100640001102144B1C688C431C60134955238B60AA
:100650000423CB604A624A6A802313434B624A6A8E
:100660001206FCD44A6A520613D4C86C8A6C10185D
:100670004A6C80180A6C8018CA6B80188A6B8018C4
:1006800040080122D203024390B2C8621F200860D2
:10069000002010BD3090044000B0034001208102D2
:1006A000194A13680B43136000020649086048604A
:1006B00088600720000204490A6902430A61086051
:1006C0007047C04620A0044044F00F4080B50E485B
:1006D000016820220A4302600321490202680A439A
:1006E00002600A4800210160094801600948016868
:1006F000094A0A43026001208006084908604A4905
:100700000860FFF74BFF80BD388004403490044000
:1007100030A0044000500440E40B701480E200E07C
:1007200010B50A2908D109490A68002383544022D8
:10073000012484540B6010BD0D2906D0034A1368B0
:100740003E2B02D8C154581C106010BD78FCFF1F0E
:1007500010B504462078002803D000F00DF8641C82
:10076000F8E710BD80B5FFF7F3FF02A0FFF7F0FF39
:1007700080BDC0460A0D00000A4900228A56002AA0
:10078000FBD5C8707047C046B0B5064C214D2078E7
:10079000800606D52868E1780028F8D0FFF7C0FF6A
:1007A000F5E7B0BD04A0064070B5044619480260E4
:1007B0002160FFF72DFE0125A80217490A6B0243AD
:1007C0000A634A6B02434A63A8060A6802430A6046
:1007D0006802124908604860114EF078F321014028
:1007E000F170206801010F48FFF704FDC104C90E34
:1007F000317070700F20B072F07820210143F170D9
:10080000F0780C210143F170280307490860204665
:1008100070BDC04674FCFF1F0480044004A0044067
:1008200000A00640006CDC0200E100E00A4801681C
:1008300040220A43026001218A0243681343436055
:100840004802064908604860054841787F220A400E
:100850004270032101707047348004400CA00440B2
:100860000160064092B001AC2046FFF7C0FD4B206E
:10087000C10168462246FFF797FFFFF7D7FFFFF752
:100880000DFFFFF723FFFFF7CFFE2046FFF7A1FD87
:10089000012000210A46FFF763FE02A12046FFF770
:1008A000A1FDC04657616974696E6720666F72204A
:1008B000636F6D6D616E64732E2E2E00DC08000078
:1008C00000FCFF1F040000001C010000E008000005
:1008D00008FCFF1F780400003C0100000000DC025F
:040000050000018175
:00000001FF
